:1000000012C024C023C022C021C020C01FC01EC0F7
:100010001DC01CC01BC01AC019C018C017C016C014
:1000200015C014C013C011241FBECFE5D4E0DEBF3D
:10003000CDBF10E0A0E6B0E0EAE9F4E002C0059030
:100040000D92A239B107D9F702D025C2D9CF0F93AB
:100050001F93CF93DF93B898C09AB998C19ABA9872
:10006000C29ABB98C39A80E884BF84BF8FE590E0B2
:1000700077D180E0DDD081E090E060E070E0B1D049
:1000800080E690E0FDD088EA91E60197F1F781E003
:1000900090E060E070E0A5D0C4ECD9E008EA11E699
:1000A000B09914C0B19B12C0B29B10C0B39B0EC0DC
:1000B00081E090E060E070E094D080E060E048D1C2
:1000C00088E690E0DDD081E690E02BC0B09B14C0C4
:1000D000B19912C0B29B10C0B39B0EC081E090E0FA
:1000E00060E070E07ED080E060E032D182E790E0B6
:1000F000C7D082E690E015C0B09B18C0B19B16C077
:10010000B29914C0B39B12C081E090E060E070E04F
:1001100068D080E060E01CD18CE790E0B1D083E64D
:1001200090E029D1CE010197F1F719C0B09B14C01E
:10013000B19B12C0B29B10C0B3990EC081E090E099
:1001400060E070E04ED080E060E002D186E890E0B0
:1001500097D084E690E0E5CF85E690E00CD1C80129
:100160000197F1F79DCF80E487B987E886B90895B4
:1001700097B1987F97B997B18770892B87B9369ACD
:10018000349BFECF349A24B135B1C901089584B3AC
:10019000807F84BB959A969881E08A95F1F721E05B
:1001A000979A822F8A95F1F783B38295807F922F59
:1001B0009A95F1F79798922F9A95F1F7979A922F2F
:1001C0009A95F1F793B3922F9A95F1F79798922F0A
:1001D0009A95F1F787FDE4CF959884B38F6084BB3F
:1001E0000895382F662311F4969801C0969A21E05D
:1001F000822F8A95F1F7979A85B3932F92959F70E6
:10020000807F982B95BB822F8A95F1F79798822F44
:100210008A95F1F7979A85B33F70807F832B85BBD2
:10022000822F8A95F1F797982A95F1F7B0DF089514
:100230001F93182F8BE39BE20197F1F784B38F6034
:1002400084BB8F9A8E9A8D9A85B3807F85BB979851
:100250009598969881E0982F9A95F1F7979AA99A90
:10026000982F9A95F1F797988A95F1F790DF812F5B
:100270008C6060E0B6DF88E260E0B3DF1F91089534
:10028000CF93DF93EC0103C061E0ABDF219688815F
:100290008823D1F7DF91CF910895EF92FF920F93CA
:1002A0001F93DF93CF9300D000D00F92CDB7DEB76E
:1002B0009C018B01FE01319685E0DF011D928A953C
:1002C000E9F7FE0135960BC0C9016AE070E0BCD0C9
:1002D0008083C9016AE070E0B7D09B013197211596
:1002E000310591F7BFEF0F3F1B0779F420E030E0B5
:1002F000AE014F5F5F4F02C02F5F3F4FFA01E20F29
:10030000F31F80818823C1F304C025E030E0201B67
:10031000310B7E010894E11CF11CE20EF31E8901F1
:1003200008C0F70181917F01805D61E05ADF0F5FB6
:100330001F4F05301105ACF30F900F900F900F90E9
:100340000F90CF91DF911F910F91FF90EF90089543
:10035000883228F461118064806860E042DF08958B
:1003600089B990BD86E880BD88ED8AB908955F9B04
:10037000FECF8CB108955D9BFECF8CB908950F938D
:100380001F93DF93CF9300D000D00F92CDB7DEB78D
:100390009C018B01FE01319685E0DF011D928A955B
:1003A000E9F7FE0135960BC0C9016AE070E04CD058
:1003B0008083C9016AE070E047D09B013197211525
:1003C000310591F7BFEF0F3F1B0771F4A0E0B0E0DC
:1003D0009E012F5F3F4F01C01196F901EA0FFB1FED
:1003E00080818823C9F304C0A5E0B0E0A01BB10B55
:1003F000A530B105ACF4AC0FBD1F11968C915D9B7F
:10040000FECF805D8CB984EC99E0FC013197F1F767
:10041000FC013197F1F7FC013197F1F70197F1F702
:100420000F900F900F900F900F90CF91DF911F9131
:100430000F910895FC0104C05D9BFECF8CB93196ED
:1004400080818823C9F7089597FB092E07260AD0D3
:1004500077FD04D00CD006D000201AF47095619579
:100460007F4F0895F6F7909581959F4F0895AA1BA9
:10047000BB1B51E107C0AA1FBB1FA617B70710F08F
:10048000A61BB70B881F991F5A95A9F780959095C1
:0A049000BC01CD010895F894FFCFE0
:10049A0057656C636F6D6500323525206C6576652E
:1004AA006C00353025206C6576656C003735252063
:1004BA006C6576656C0031303025206C6576656C2C
:0204CA00000030
:00000001FF
