:1000000012C024C023C022C021C020C01FC01EC0F7
:100010001DC01CC01BC01AC019C018C017C016C014
:1000200015C014C013C011241FBECFE5D4E0DEBF3D
:10003000CDBF10E0A0E6B0E0E6E7F5E002C0059035
:100040000D92A63BB107D9F702D093C2D9CFBF9288
:10005000CF92DF92EF92FF920F931F93CF93DF9394
:100060008FE590E0EBD1E7D080E04BD181E090E0EC
:1000700060E070E01FD185E060E0D8D180E690E0DC
:100080006DD188EE93E020E731E0F9013197F1F787
:100090000197D9F781E090E060E070E00BD180E05B
:1000A00060E0C4D188E690E059D188EE93E020E783
:1000B00031E0F9013197F1F70197D9F781E090E04C
:1000C00060E070E0F7D08FEF87BB8FE088BBE12C5A
:1000D00040E9F42E3AE0B32E00E711E023E0D22EFF
:1000E00097E0C92E80E090E0ABD0EC0180E061E0C9
:1000F0009DD18EE790E032D18CE061E097D1D6952A
:10010000C7958C2F90E063E070E035D1C70101976F
:10011000F1F79BD1813611F581E090E060E070E06D
:10012000C9D080E061E082D18EE790E017D18CE009
:1001300061E07CD18C2F90E063E070E01CD180E026
:1001400060E074D18CE890E009D1B8BA88EC90E016
:10015000F8013197F1F70197D9F7C4CF823611F53D
:1001600081E090E060E070E0A5D080E061E05ED1E9
:100170008EE790E0F3D08CE061E058D18C2F90E0D6
:1001800063E070E0F8D080E060E050D186E990E074
:10019000E5D0C8BA88EC90E0F8013197F1F7019703
:1001A000D9F7A0CF833611F581E090E060E070E0F0
:1001B00081D080E061E03AD18EE790E0CFD08CE052
:1001C00061E034D18C2F90E063E070E0D4D080E027
:1001D00060E02CD180EA90E0C1D0D8BA88EC90E001
:1001E000F8013197F1F70197D9F77CCF843609F000
:1001F00079CF81E090E060E070E05CD080E061E089
:1002000015D18EE790E0AAD08CE061E00FD18C2F61
:1002100090E063E070E0AFD080E060E007D18AEA70
:1002200090E09CD018BA88EC90E0F8013197F1F793
:100230000197D9F757CF80E487B987E886B9089541
:1002400097B1987F97B997B18770892B87B9369AFC
:10025000349BFECF349A24B135B1C901089584B3DB
:10026000807F84BB959A969882E08A95F1F722E088
:1002700034E0979A822F8A95F1F783B38295807F35
:10028000922F9A95F1F79798932F9A95F1F7979A5D
:10029000922F9A95F1F793B3922F9A95F1F7979839
:1002A000932F9A95F1F787FDE4CF959884B38F60EB
:1002B00084BB0895282F662311F4969801C0969A5E
:1002C00082E08A95F1F7979A85B3922F92959F7065
:1002D000807F982B95BB94E0892F8A95F1F79798AA
:1002E000892F8A95F1F7979A85B32F70807F822B9B
:1002F00085BB892F8A95F1F797989A95F1F7AFDF2B
:1003000008951F93182F8CE291E020E731E0F90166
:100310003197F1F70197D9F784B38F6084BB8F9A37
:100320008E9A8D9A85B3807F85BB9798959896987D
:1003300081E08A95F1F7979AA99A84E0982F9A9587
:10034000F1F797988A95F1F78ADF812F8C6060E04A
:10035000B1DF88E260E0AEDF1F910895CF93DF93B5
:10036000EC0103C061E0A6DF219688818823D1F7E4
:10037000DF91CF910895EF92FF920F931F93DF9338
:10038000CF9300D000D00F92CDB7DEB79C018B0188
:10039000FE01319685E0DF011D928A95E9F7FE01A5
:1003A00035960BC0C9016AE070E0BCD08083C901FA
:1003B0006AE070E0B7D09B0131972115310591F7C4
:1003C000BFEF0F3F1B0779F420E030E0AE014F5F35
:1003D0005F4F02C02F5F3F4FFA01E20FF31F808192
:1003E0008823C1F304C025E030E0201B310B7E01DF
:1003F0000894E11CF11CE20EF31E890108C0F7010C
:1004000081917F01805D61E055DF0F5F1F4F0530F7
:100410001105ACF30F900F900F900F900F90CF91AC
:10042000DF911F910F91FF90EF900895883228F48B
:1004300061118064806860E03DDF089589B990BDF6
:1004400086E880BD88ED8AB908955F9BFECF8CB1A8
:1004500008955D9BFECF8CB908950F931F93DF9392
:10046000CF9300D000D00F92CDB7DEB79C018B01A7
:10047000FE01319685E0DF011D928A95E9F7FE01C4
:1004800035960BC0C9016AE070E04CD08083C90189
:100490006AE070E047D09B0131972115310591F753
:1004A000BFEF0F3F1B0771F4A0E0B0E09E012F5F8C
:1004B0003F4F01C01196F901EA0FFB1F808188238D
:1004C000C9F304C0A5E0B0E0A01BB10BA530B10595
:1004D000ACF4AC0FBD1F11968C915D9BFECF805D7F
:1004E0008CB980E090E9FC013197F1F7FC0131977C
:1004F000F1F7FC013197F1F70197F1F70F900F90A9
:100500000F900F900F90CF91DF911F910F91089551
:10051000FC0104C05D9BFECF8CB93196808188239D
:10052000C9F7089597FB092E07260AD077FD04D056
:100530000CD006D000201AF4709561957F4F089575
:10054000F6F7909581959F4F0895AA1BBB1B51E12B
:1005500007C0AA1FBB1FA617B70710F0A61BB70B33
:10056000881F991F5A95A9F780959095BC01CD01D8
:060570000895F894FFCF8E
:1005760057656C636F6D65004865617465722043ED
:100586006F6E74726F6C2053797374656D0043756A
:100596007272656E742054656D702E00323525209A
:1005A6006C6576656C00353025206C6576656C006B
:1005B600373525206C6576656C0031303025206C2A
:0605C6006576656C000083
:00000001FF
